{
  "_format": "hh-sol-artifact-1",
  "contractName": "Challenges",
  "sourceName": "contracts/Challenges.sol",
  "abi": [
    {
      "inputs": [
        {
          "internalType": "address",
          "name": "starTokenAddress",
          "type": "address"
        }
      ],
      "stateMutability": "nonpayable",
      "type": "constructor"
    },
    {
      "anonymous": false,
      "inputs": [
        {
          "indexed": false,
          "internalType": "uint256",
          "name": "id",
          "type": "uint256"
        },
        {
          "indexed": false,
          "internalType": "bool",
          "name": "approved",
          "type": "bool"
        },
        {
          "indexed": false,
          "internalType": "uint256",
          "name": "starsToEarn",
          "type": "uint256"
        }
      ],
      "name": "ChallengeApproved",
      "type": "event"
    },
    {
      "anonymous": false,
      "inputs": [
        {
          "indexed": false,
          "internalType": "uint256",
          "name": "id",
          "type": "uint256"
        },
        {
          "indexed": false,
          "internalType": "bool",
          "name": "completed",
          "type": "bool"
        }
      ],
      "name": "ChallengeCompleted",
      "type": "event"
    },
    {
      "anonymous": false,
      "inputs": [
        {
          "indexed": false,
          "internalType": "address",
          "name": "admin",
          "type": "address"
        },
        {
          "indexed": false,
          "internalType": "uint256",
          "name": "balance",
          "type": "uint256"
        },
        {
          "indexed": false,
          "internalType": "uint256",
          "name": "id",
          "type": "uint256"
        }
      ],
      "name": "ChallengeCreated",
      "type": "event"
    },
    {
      "anonymous": false,
      "inputs": [
        {
          "indexed": true,
          "internalType": "bytes32",
          "name": "role",
          "type": "bytes32"
        },
        {
          "indexed": true,
          "internalType": "bytes32",
          "name": "previousAdminRole",
          "type": "bytes32"
        },
        {
          "indexed": true,
          "internalType": "bytes32",
          "name": "newAdminRole",
          "type": "bytes32"
        }
      ],
      "name": "RoleAdminChanged",
      "type": "event"
    },
    {
      "anonymous": false,
      "inputs": [
        {
          "indexed": true,
          "internalType": "bytes32",
          "name": "role",
          "type": "bytes32"
        },
        {
          "indexed": true,
          "internalType": "address",
          "name": "account",
          "type": "address"
        },
        {
          "indexed": true,
          "internalType": "address",
          "name": "sender",
          "type": "address"
        }
      ],
      "name": "RoleGranted",
      "type": "event"
    },
    {
      "anonymous": false,
      "inputs": [
        {
          "indexed": true,
          "internalType": "bytes32",
          "name": "role",
          "type": "bytes32"
        },
        {
          "indexed": true,
          "internalType": "address",
          "name": "account",
          "type": "address"
        },
        {
          "indexed": true,
          "internalType": "address",
          "name": "sender",
          "type": "address"
        }
      ],
      "name": "RoleRevoked",
      "type": "event"
    },
    {
      "anonymous": false,
      "inputs": [
        {
          "indexed": false,
          "internalType": "uint256",
          "name": "id",
          "type": "uint256"
        },
        {
          "indexed": false,
          "internalType": "bool",
          "name": "approved",
          "type": "bool"
        }
      ],
      "name": "UserApproved",
      "type": "event"
    },
    {
      "inputs": [],
      "name": "DEFAULT_ADMIN_ROLE",
      "outputs": [
        {
          "internalType": "bytes32",
          "name": "",
          "type": "bytes32"
        }
      ],
      "stateMutability": "view",
      "type": "function"
    },
    {
      "inputs": [
        {
          "internalType": "address",
          "name": "_user",
          "type": "address"
        },
        {
          "internalType": "uint256",
          "name": "id",
          "type": "uint256"
        }
      ],
      "name": "approveChallengeComplete",
      "outputs": [],
      "stateMutability": "nonpayable",
      "type": "function"
    },
    {
      "inputs": [
        {
          "internalType": "address",
          "name": "_user",
          "type": "address"
        },
        {
          "internalType": "uint256",
          "name": "id",
          "type": "uint256"
        }
      ],
      "name": "approveUser",
      "outputs": [],
      "stateMutability": "nonpayable",
      "type": "function"
    },
    {
      "inputs": [
        {
          "internalType": "uint256",
          "name": "id",
          "type": "uint256"
        }
      ],
      "name": "challengeComplete",
      "outputs": [],
      "stateMutability": "nonpayable",
      "type": "function"
    },
    {
      "inputs": [
        {
          "internalType": "uint256",
          "name": "_starsToEarn",
          "type": "uint256"
        },
        {
          "internalType": "string",
          "name": "_description",
          "type": "string"
        }
      ],
      "name": "createChallenge",
      "outputs": [],
      "stateMutability": "nonpayable",
      "type": "function"
    },
    {
      "inputs": [
        {
          "internalType": "uint256",
          "name": "_id",
          "type": "uint256"
        },
        {
          "internalType": "address",
          "name": "_address",
          "type": "address"
        }
      ],
      "name": "getChallenge",
      "outputs": [
        {
          "internalType": "uint256",
          "name": "id",
          "type": "uint256"
        },
        {
          "internalType": "address",
          "name": "admin",
          "type": "address"
        },
        {
          "internalType": "string",
          "name": "description",
          "type": "string"
        },
        {
          "internalType": "uint256",
          "name": "starsToEarn",
          "type": "uint256"
        },
        {
          "internalType": "bool",
          "name": "participating",
          "type": "bool"
        },
        {
          "internalType": "bool",
          "name": "completed",
          "type": "bool"
        }
      ],
      "stateMutability": "view",
      "type": "function"
    },
    {
      "inputs": [
        {
          "internalType": "address",
          "name": "_address",
          "type": "address"
        }
      ],
      "name": "getMyChallenges",
      "outputs": [
        {
          "internalType": "uint256[]",
          "name": "",
          "type": "uint256[]"
        }
      ],
      "stateMutability": "view",
      "type": "function"
    },
    {
      "inputs": [
        {
          "internalType": "address",
          "name": "_address",
          "type": "address"
        }
      ],
      "name": "getParticipatingChallenges",
      "outputs": [
        {
          "internalType": "uint256[]",
          "name": "",
          "type": "uint256[]"
        }
      ],
      "stateMutability": "view",
      "type": "function"
    },
    {
      "inputs": [
        {
          "internalType": "bytes32",
          "name": "role",
          "type": "bytes32"
        }
      ],
      "name": "getRoleAdmin",
      "outputs": [
        {
          "internalType": "bytes32",
          "name": "",
          "type": "bytes32"
        }
      ],
      "stateMutability": "view",
      "type": "function"
    },
    {
      "inputs": [
        {
          "internalType": "bytes32",
          "name": "role",
          "type": "bytes32"
        },
        {
          "internalType": "address",
          "name": "account",
          "type": "address"
        }
      ],
      "name": "grantRole",
      "outputs": [],
      "stateMutability": "nonpayable",
      "type": "function"
    },
    {
      "inputs": [
        {
          "internalType": "bytes32",
          "name": "role",
          "type": "bytes32"
        },
        {
          "internalType": "address",
          "name": "account",
          "type": "address"
        }
      ],
      "name": "hasRole",
      "outputs": [
        {
          "internalType": "bool",
          "name": "",
          "type": "bool"
        }
      ],
      "stateMutability": "view",
      "type": "function"
    },
    {
      "inputs": [
        {
          "internalType": "bytes32",
          "name": "role",
          "type": "bytes32"
        },
        {
          "internalType": "address",
          "name": "account",
          "type": "address"
        }
      ],
      "name": "renounceRole",
      "outputs": [],
      "stateMutability": "nonpayable",
      "type": "function"
    },
    {
      "inputs": [
        {
          "internalType": "bytes32",
          "name": "role",
          "type": "bytes32"
        },
        {
          "internalType": "address",
          "name": "account",
          "type": "address"
        }
      ],
      "name": "revokeRole",
      "outputs": [],
      "stateMutability": "nonpayable",
      "type": "function"
    },
    {
      "inputs": [
        {
          "internalType": "bytes4",
          "name": "interfaceId",
          "type": "bytes4"
        }
      ],
      "name": "supportsInterface",
      "outputs": [
        {
          "internalType": "bool",
          "name": "",
          "type": "bool"
        }
      ],
      "stateMutability": "view",
      "type": "function"
    }
  ],
  "bytecode": "0x60806040523480156200001157600080fd5b506040516200237a3803806200237a833981810160405281019062000037919062000096565b80600560006101000a81548173ffffffffffffffffffffffffffffffffffffffff021916908373ffffffffffffffffffffffffffffffffffffffff1602179055505062000110565b6000815190506200009081620000f6565b92915050565b600060208284031215620000a957600080fd5b6000620000b9848285016200007f565b91505092915050565b6000620000cf82620000d6565b9050919050565b600073ffffffffffffffffffffffffffffffffffffffff82169050919050565b6200010181620000c2565b81146200010d57600080fd5b50565b61225a80620001206000396000f3fe608060405234801561001057600080fd5b50600436106100ea5760003560e01c806391d148541161008c578063b3cc79a111610066578063b3cc79a11461026d578063d40974d514610289578063d547741f146102a5578063e58932b3146102c1576100ea565b806391d14854146102035780639d8988d314610233578063a217fddf1461024f576100ea565b80632f2ff15d116100c85780632f2ff15d1461017f57806336568abe1461019b5780634248083b146101b75780638865711e146101d3576100ea565b806301ffc9a7146100ef578063135ef3511461011f578063248a9ca31461014f575b600080fd5b610109600480360381019061010491906117d4565b6102f6565b6040516101169190611b6f565b60405180910390f35b6101396004803603810190610134919061170a565b610370565b6040516101469190611b4d565b60405180910390f35b6101696004803603810190610164919061176f565b610407565b6040516101769190611b8a565b60405180910390f35b61019960048036038101906101949190611798565b610426565b005b6101b560048036038101906101b09190611798565b610447565b005b6101d160048036038101906101cc9190611733565b6104ca565b005b6101ed60048036038101906101e8919061170a565b610639565b6040516101fa9190611b4d565b60405180910390f35b61021d60048036038101906102189190611798565b6106d0565b60405161022a9190611b6f565b60405180910390f35b61024d600480360381019061024891906117fd565b61073a565b005b6102576108f5565b6040516102649190611b8a565b60405180910390f35b61028760048036038101906102829190611733565b6108fc565b005b6102a3600480360381019061029e9190611862565b610c5e565b005b6102bf60048036038101906102ba9190611798565b610dad565b005b6102db60048036038101906102d69190611826565b610dce565b6040516102ed96959493929190611c47565b60405180910390f35b60007f7965db0b000000000000000000000000000000000000000000000000000000007bffffffffffffffffffffffffffffffffffffffffffffffffffffffff1916827bffffffffffffffffffffffffffffffffffffffffffffffffffffffff19161480610369575061036882610fb7565b5b9050919050565b6060600160008373ffffffffffffffffffffffffffffffffffffffff1673ffffffffffffffffffffffffffffffffffffffff1681526020019081526020016000208054806020026020016040519081016040528092919081815260200182805480156103fb57602002820191906000526020600020905b8154815260200190600101908083116103e7575b50505050509050919050565b6000806000838152602001908152602001600020600101549050919050565b61042f82610407565b61043881611021565b6104428383611035565b505050565b61044f611115565b73ffffffffffffffffffffffffffffffffffffffff168173ffffffffffffffffffffffffffffffffffffffff16146104bc576040517f08c379a00000000000000000000000000000000000000000000000000000000081526004016104b390611c27565b60405180910390fd5b6104c6828261111d565b5050565b60016002600083815260200190815260200160002060040160008473ffffffffffffffffffffffffffffffffffffffff1673ffffffffffffffffffffffffffffffffffffffff16815260200190815260200160002060006101000a81548160ff021916908315150217905550600360008373ffffffffffffffffffffffffffffffffffffffff1673ffffffffffffffffffffffffffffffffffffffff1681526020019081526020016000208190806001815401808255809150506001900390600052602060002001600090919091909150557f25b770ff683390ccb697853fc3c1ca917cf0c2793cd4d0a8699c87f42f9ee1bf816002600084815260200190815260200160002060040160008573ffffffffffffffffffffffffffffffffffffffff1673ffffffffffffffffffffffffffffffffffffffff16815260200190815260200160002060009054906101000a900460ff1660405161062d929190611caf565b60405180910390a15050565b6060600360008373ffffffffffffffffffffffffffffffffffffffff1673ffffffffffffffffffffffffffffffffffffffff1681526020019081526020016000208054806020026020016040519081016040528092919081815260200182805480156106c457602002820191906000526020600020905b8154815260200190600101908083116106b0575b50505050509050919050565b600080600084815260200190815260200160002060000160008373ffffffffffffffffffffffffffffffffffffffff1673ffffffffffffffffffffffffffffffffffffffff16815260200190815260200160002060009054906101000a900460ff16905092915050565b60006002600083815260200190815260200160002060040190506000600260008481526020019081526020016000206005019050600115158260003373ffffffffffffffffffffffffffffffffffffffff1673ffffffffffffffffffffffffffffffffffffffff16815260200190815260200160002060009054906101000a900460ff16151514610800576040517f08c379a00000000000000000000000000000000000000000000000000000000081526004016107f790611be7565b60405180910390fd5b60018160003373ffffffffffffffffffffffffffffffffffffffff1673ffffffffffffffffffffffffffffffffffffffff16815260200190815260200160002060006101000a81548160ff0219169083151502179055507fa2ae97273a153f58e1d55372dc11cee95ed26013e41dbd236c5b6840570719a8836002600086815260200190815260200160002060050160003373ffffffffffffffffffffffffffffffffffffffff1673ffffffffffffffffffffffffffffffffffffffff16815260200190815260200160002060009054906101000a900460ff166040516108e8929190611caf565b60405180910390a1505050565b6000801b81565b60006002600083815260200190815260200160002060040190506000600260008481526020019081526020016000206005019050600115158260008673ffffffffffffffffffffffffffffffffffffffff1673ffffffffffffffffffffffffffffffffffffffff16815260200190815260200160002060009054906101000a900460ff161515146109c2576040517f08c379a00000000000000000000000000000000000000000000000000000000081526004016109b990611be7565b60405180910390fd5b600115158160008673ffffffffffffffffffffffffffffffffffffffff1673ffffffffffffffffffffffffffffffffffffffff16815260200190815260200160002060009054906101000a900460ff16151514610a54576040517f08c379a0000000000000000000000000000000000000000000000000000000008152600401610a4b90611c07565b60405180910390fd5b60008260008673ffffffffffffffffffffffffffffffffffffffff1673ffffffffffffffffffffffffffffffffffffffff16815260200190815260200160002060006101000a81548160ff02191690831515021790555060008160008673ffffffffffffffffffffffffffffffffffffffff1673ffffffffffffffffffffffffffffffffffffffff16815260200190815260200160002060006101000a81548160ff021916908315150217905550600560009054906101000a900473ffffffffffffffffffffffffffffffffffffffff1673ffffffffffffffffffffffffffffffffffffffff166340c10f198560026000878152602001908152602001600020600301546040518363ffffffff1660e01b8152600401610b75929190611aed565b600060405180830381600087803b158015610b8f57600080fd5b505af1158015610ba3573d6000803e3d6000fd5b505050507f46e82f1b065627ee9907ba29f76b15ad8395b6a7e562cdde97efcd7788547ee4836002600086815260200190815260200160002060040160008773ffffffffffffffffffffffffffffffffffffffff1673ffffffffffffffffffffffffffffffffffffffff16815260200190815260200160002060009054906101000a900460ff166002600087815260200190815260200160002060030154604051610c5093929190611cd8565b60405180910390a150505050565b600060026000600454815260200190815260200160002090506004548160000181905550338160010160006101000a81548173ffffffffffffffffffffffffffffffffffffffff021916908373ffffffffffffffffffffffffffffffffffffffff16021790555081816002019080519060200190610cdd9291906115ab565b50828160030181905550600160003373ffffffffffffffffffffffffffffffffffffffff1673ffffffffffffffffffffffffffffffffffffffff1681526020019081526020016000206004549080600181540180825580915050600190039060005260206000200160009091909190915055610d6560016004546111fe90919063ffffffff16565b6004819055507f95cfc8daa181e686d14ea373e0fa93457a03e05c990e4b069e4aa84a43632c8c3384600454604051610da093929190611b16565b60405180910390a1505050565b610db682610407565b610dbf81611021565b610dc9838361111d565b505050565b600080606060008060006002600089815260200190815260200160002060000154600260008a815260200190815260200160002060010160009054906101000a900473ffffffffffffffffffffffffffffffffffffffff16600260008b8152602001908152602001600020600201600260008c815260200190815260200160002060030154600260008d815260200190815260200160002060040160008c73ffffffffffffffffffffffffffffffffffffffff1673ffffffffffffffffffffffffffffffffffffffff16815260200190815260200160002060009054906101000a900460ff16600260008e815260200190815260200160002060050160008d73ffffffffffffffffffffffffffffffffffffffff1673ffffffffffffffffffffffffffffffffffffffff16815260200190815260200160002060009054906101000a900460ff16838054610f2190611f5f565b80601f0160208091040260200160405190810160405280929190818152602001828054610f4d90611f5f565b8015610f9a5780601f10610f6f57610100808354040283529160200191610f9a565b820191906000526020600020905b815481529060010190602001808311610f7d57829003601f168201915b505050505093509550955095509550955095509295509295509295565b60007f01ffc9a7000000000000000000000000000000000000000000000000000000007bffffffffffffffffffffffffffffffffffffffffffffffffffffffff1916827bffffffffffffffffffffffffffffffffffffffffffffffffffffffff1916149050919050565b6110328161102d611115565b611214565b50565b61103f82826106d0565b61111157600160008084815260200190815260200160002060000160008373ffffffffffffffffffffffffffffffffffffffff1673ffffffffffffffffffffffffffffffffffffffff16815260200190815260200160002060006101000a81548160ff0219169083151502179055506110b6611115565b73ffffffffffffffffffffffffffffffffffffffff168173ffffffffffffffffffffffffffffffffffffffff16837f2f8788117e7eff1d82e926ec794901d17c78024a50270940304540a733656f0d60405160405180910390a45b5050565b600033905090565b61112782826106d0565b156111fa57600080600084815260200190815260200160002060000160008373ffffffffffffffffffffffffffffffffffffffff1673ffffffffffffffffffffffffffffffffffffffff16815260200190815260200160002060006101000a81548160ff02191690831515021790555061119f611115565b73ffffffffffffffffffffffffffffffffffffffff168173ffffffffffffffffffffffffffffffffffffffff16837ff6391f5c32d9c69d2a47ea670b442974b53935d1edc7fd64eb21e047a839171b60405160405180910390a45b5050565b6000818361120c9190611dc5565b905092915050565b61121e82826106d0565b6112ad576112438173ffffffffffffffffffffffffffffffffffffffff1660146112b1565b6112518360001c60206112b1565b604051602001611262929190611ab3565b6040516020818303038152906040526040517f08c379a00000000000000000000000000000000000000000000000000000000081526004016112a49190611ba5565b60405180910390fd5b5050565b6060600060028360026112c49190611e1b565b6112ce9190611dc5565b67ffffffffffffffff81111561130d577f4e487b7100000000000000000000000000000000000000000000000000000000600052604160045260246000fd5b6040519080825280601f01601f19166020018201604052801561133f5781602001600182028036833780820191505090505b5090507f30000000000000000000000000000000000000000000000000000000000000008160008151811061139d577f4e487b7100000000000000000000000000000000000000000000000000000000600052603260045260246000fd5b60200101907effffffffffffffffffffffffffffffffffffffffffffffffffffffffffffff1916908160001a9053507f780000000000000000000000000000000000000000000000000000000000000081600181518110611427577f4e487b7100000000000000000000000000000000000000000000000000000000600052603260045260246000fd5b60200101907effffffffffffffffffffffffffffffffffffffffffffffffffffffffffffff1916908160001a905350600060018460026114679190611e1b565b6114719190611dc5565b90505b600181111561155d577f3031323334353637383961626364656600000000000000000000000000000000600f8616601081106114d9577f4e487b7100000000000000000000000000000000000000000000000000000000600052603260045260246000fd5b1a60f81b828281518110611516577f4e487b7100000000000000000000000000000000000000000000000000000000600052603260045260246000fd5b60200101907effffffffffffffffffffffffffffffffffffffffffffffffffffffffffffff1916908160001a905350600485901c94508061155690611f35565b9050611474565b50600084146115a1576040517f08c379a000000000000000000000000000000000000000000000000000000000815260040161159890611bc7565b60405180910390fd5b8091505092915050565b8280546115b790611f5f565b90600052602060002090601f0160209004810192826115d95760008555611620565b82601f106115f257805160ff1916838001178555611620565b82800160010185558215611620579182015b8281111561161f578251825591602001919060010190611604565b5b50905061162d9190611631565b5090565b5b8082111561164a576000816000905550600101611632565b5090565b600061166161165c84611d34565b611d0f565b90508281526020810184848401111561167957600080fd5b611684848285611ef3565b509392505050565b60008135905061169b816121c8565b92915050565b6000813590506116b0816121df565b92915050565b6000813590506116c5816121f6565b92915050565b600082601f8301126116dc57600080fd5b81356116ec84826020860161164e565b91505092915050565b6000813590506117048161220d565b92915050565b60006020828403121561171c57600080fd5b600061172a8482850161168c565b91505092915050565b6000806040838503121561174657600080fd5b60006117548582860161168c565b9250506020611765858286016116f5565b9150509250929050565b60006020828403121561178157600080fd5b600061178f848285016116a1565b91505092915050565b600080604083850312156117ab57600080fd5b60006117b9858286016116a1565b92505060206117ca8582860161168c565b9150509250929050565b6000602082840312156117e657600080fd5b60006117f4848285016116b6565b91505092915050565b60006020828403121561180f57600080fd5b600061181d848285016116f5565b91505092915050565b6000806040838503121561183957600080fd5b6000611847858286016116f5565b92505060206118588582860161168c565b9150509250929050565b6000806040838503121561187557600080fd5b6000611883858286016116f5565b925050602083013567ffffffffffffffff8111156118a057600080fd5b6118ac858286016116cb565b9150509250929050565b60006118c28383611a95565b60208301905092915050565b6118d781611e75565b82525050565b60006118e882611d75565b6118f28185611d98565b93506118fd83611d65565b8060005b8381101561192e57815161191588826118b6565b975061192083611d8b565b925050600181019050611901565b5085935050505092915050565b61194481611e87565b82525050565b61195381611e93565b82525050565b600061196482611d80565b61196e8185611da9565b935061197e818560208601611f02565b6119878161204f565b840191505092915050565b600061199d82611d80565b6119a78185611dba565b93506119b7818560208601611f02565b80840191505092915050565b60006119d0602083611da9565b91506119db82612060565b602082019050919050565b60006119f3602e83611da9565b91506119fe82612089565b604082019050919050565b6000611a16602483611da9565b9150611a21826120d8565b604082019050919050565b6000611a39601783611dba565b9150611a4482612127565b601782019050919050565b6000611a5c601183611dba565b9150611a6782612150565b601182019050919050565b6000611a7f602f83611da9565b9150611a8a82612179565b604082019050919050565b611a9e81611ee9565b82525050565b611aad81611ee9565b82525050565b6000611abe82611a2c565b9150611aca8285611992565b9150611ad582611a4f565b9150611ae18284611992565b91508190509392505050565b6000604082019050611b0260008301856118ce565b611b0f6020830184611aa4565b9392505050565b6000606082019050611b2b60008301866118ce565b611b386020830185611aa4565b611b456040830184611aa4565b949350505050565b60006020820190508181036000830152611b6781846118dd565b905092915050565b6000602082019050611b84600083018461193b565b92915050565b6000602082019050611b9f600083018461194a565b92915050565b60006020820190508181036000830152611bbf8184611959565b905092915050565b60006020820190508181036000830152611be0816119c3565b9050919050565b60006020820190508181036000830152611c00816119e6565b9050919050565b60006020820190508181036000830152611c2081611a09565b9050919050565b60006020820190508181036000830152611c4081611a72565b9050919050565b600060c082019050611c5c6000830189611aa4565b611c6960208301886118ce565b8181036040830152611c7b8187611959565b9050611c8a6060830186611aa4565b611c97608083018561193b565b611ca460a083018461193b565b979650505050505050565b6000604082019050611cc46000830185611aa4565b611cd1602083018461193b565b9392505050565b6000606082019050611ced6000830186611aa4565b611cfa602083018561193b565b611d076040830184611aa4565b949350505050565b6000611d19611d2a565b9050611d258282611f91565b919050565b6000604051905090565b600067ffffffffffffffff821115611d4f57611d4e612020565b5b611d588261204f565b9050602081019050919050565b6000819050602082019050919050565b600081519050919050565b600081519050919050565b6000602082019050919050565b600082825260208201905092915050565b600082825260208201905092915050565b600081905092915050565b6000611dd082611ee9565b9150611ddb83611ee9565b9250827fffffffffffffffffffffffffffffffffffffffffffffffffffffffffffffffff03821115611e1057611e0f611fc2565b5b828201905092915050565b6000611e2682611ee9565b9150611e3183611ee9565b9250817fffffffffffffffffffffffffffffffffffffffffffffffffffffffffffffffff0483118215151615611e6a57611e69611fc2565b5b828202905092915050565b6000611e8082611ec9565b9050919050565b60008115159050919050565b6000819050919050565b60007fffffffff0000000000000000000000000000000000000000000000000000000082169050919050565b600073ffffffffffffffffffffffffffffffffffffffff82169050919050565b6000819050919050565b82818337600083830152505050565b60005b83811015611f20578082015181840152602081019050611f05565b83811115611f2f576000848401525b50505050565b6000611f4082611ee9565b91506000821415611f5457611f53611fc2565b5b600182039050919050565b60006002820490506001821680611f7757607f821691505b60208210811415611f8b57611f8a611ff1565b5b50919050565b611f9a8261204f565b810181811067ffffffffffffffff82111715611fb957611fb8612020565b5b80604052505050565b7f4e487b7100000000000000000000000000000000000000000000000000000000600052601160045260246000fd5b7f4e487b7100000000000000000000000000000000000000000000000000000000600052602260045260246000fd5b7f4e487b7100000000000000000000000000000000000000000000000000000000600052604160045260246000fd5b6000601f19601f8301169050919050565b7f537472696e67733a20686578206c656e67746820696e73756666696369656e74600082015250565b7f636f756c64206e6f742066696e6420746865206465646963617465642075736560008201527f7220696e20746865206172726179000000000000000000000000000000000000602082015250565b7f7573657220686173206e6f7420636f6d706c6574656420746865206368616c6c60008201527f656e676500000000000000000000000000000000000000000000000000000000602082015250565b7f416363657373436f6e74726f6c3a206163636f756e7420000000000000000000600082015250565b7f206973206d697373696e6720726f6c6520000000000000000000000000000000600082015250565b7f416363657373436f6e74726f6c3a2063616e206f6e6c792072656e6f756e636560008201527f20726f6c657320666f722073656c660000000000000000000000000000000000602082015250565b6121d181611e75565b81146121dc57600080fd5b50565b6121e881611e93565b81146121f357600080fd5b50565b6121ff81611e9d565b811461220a57600080fd5b50565b61221681611ee9565b811461222157600080fd5b5056fea26469706673582212203b56e73cc2d92e4ebeef5eff73026f19e6c4449342346bb7b4854c01caa1ea7b64736f6c63430008040033",
  "linkReferences": {},
  "deployedLinkReferences": {}
}