{
  "_format": "hh-sol-artifact-1",
  "contractName": "Challenges",
  "sourceName": "contracts/Challenges.sol",
  "abi": [
    {
      "inputs": [
        {
          "internalType": "address",
          "name": "starTokenAddress",
          "type": "address"
        }
      ],
      "stateMutability": "nonpayable",
      "type": "constructor"
    },
    {
      "anonymous": false,
      "inputs": [
        {
          "indexed": false,
          "internalType": "uint256",
          "name": "id",
          "type": "uint256"
        },
        {
          "indexed": false,
          "internalType": "bool",
          "name": "approved",
          "type": "bool"
        },
        {
          "indexed": false,
          "internalType": "uint256",
          "name": "starsToEarn",
          "type": "uint256"
        }
      ],
      "name": "ChallengeApproved",
      "type": "event"
    },
    {
      "anonymous": false,
      "inputs": [
        {
          "indexed": false,
          "internalType": "uint256",
          "name": "id",
          "type": "uint256"
        },
        {
          "indexed": false,
          "internalType": "bool",
          "name": "completed",
          "type": "bool"
        }
      ],
      "name": "ChallengeCompleted",
      "type": "event"
    },
    {
      "anonymous": false,
      "inputs": [
        {
          "indexed": false,
          "internalType": "address",
          "name": "admin",
          "type": "address"
        },
        {
          "indexed": false,
          "internalType": "uint256",
          "name": "balance",
          "type": "uint256"
        },
        {
          "indexed": false,
          "internalType": "uint256",
          "name": "id",
          "type": "uint256"
        }
      ],
      "name": "ChallengeCreated",
      "type": "event"
    },
    {
      "anonymous": false,
      "inputs": [
        {
          "indexed": true,
          "internalType": "bytes32",
          "name": "role",
          "type": "bytes32"
        },
        {
          "indexed": true,
          "internalType": "bytes32",
          "name": "previousAdminRole",
          "type": "bytes32"
        },
        {
          "indexed": true,
          "internalType": "bytes32",
          "name": "newAdminRole",
          "type": "bytes32"
        }
      ],
      "name": "RoleAdminChanged",
      "type": "event"
    },
    {
      "anonymous": false,
      "inputs": [
        {
          "indexed": true,
          "internalType": "bytes32",
          "name": "role",
          "type": "bytes32"
        },
        {
          "indexed": true,
          "internalType": "address",
          "name": "account",
          "type": "address"
        },
        {
          "indexed": true,
          "internalType": "address",
          "name": "sender",
          "type": "address"
        }
      ],
      "name": "RoleGranted",
      "type": "event"
    },
    {
      "anonymous": false,
      "inputs": [
        {
          "indexed": true,
          "internalType": "bytes32",
          "name": "role",
          "type": "bytes32"
        },
        {
          "indexed": true,
          "internalType": "address",
          "name": "account",
          "type": "address"
        },
        {
          "indexed": true,
          "internalType": "address",
          "name": "sender",
          "type": "address"
        }
      ],
      "name": "RoleRevoked",
      "type": "event"
    },
    {
      "anonymous": false,
      "inputs": [
        {
          "indexed": false,
          "internalType": "uint256",
          "name": "id",
          "type": "uint256"
        },
        {
          "indexed": false,
          "internalType": "bool",
          "name": "approved",
          "type": "bool"
        }
      ],
      "name": "UserApproved",
      "type": "event"
    },
    {
      "inputs": [],
      "name": "DEFAULT_ADMIN_ROLE",
      "outputs": [
        {
          "internalType": "bytes32",
          "name": "",
          "type": "bytes32"
        }
      ],
      "stateMutability": "view",
      "type": "function"
    },
    {
      "inputs": [
        {
          "internalType": "address",
          "name": "_user",
          "type": "address"
        },
        {
          "internalType": "uint256",
          "name": "id",
          "type": "uint256"
        }
      ],
      "name": "approveChallengeComplete",
      "outputs": [],
      "stateMutability": "nonpayable",
      "type": "function"
    },
    {
      "inputs": [
        {
          "internalType": "address",
          "name": "_user",
          "type": "address"
        },
        {
          "internalType": "uint256",
          "name": "id",
          "type": "uint256"
        }
      ],
      "name": "approveUser",
      "outputs": [],
      "stateMutability": "nonpayable",
      "type": "function"
    },
    {
      "inputs": [
        {
          "internalType": "uint256",
          "name": "id",
          "type": "uint256"
        }
      ],
      "name": "challengeComplete",
      "outputs": [],
      "stateMutability": "nonpayable",
      "type": "function"
    },
    {
      "inputs": [
        {
          "internalType": "uint256",
          "name": "_starsToEarn",
          "type": "uint256"
        },
        {
          "internalType": "string",
          "name": "_description",
          "type": "string"
        }
      ],
      "name": "createChallenge",
      "outputs": [],
      "stateMutability": "nonpayable",
      "type": "function"
    },
    {
      "inputs": [
        {
          "internalType": "uint256",
          "name": "_id",
          "type": "uint256"
        }
      ],
      "name": "getChallenge",
      "outputs": [
        {
          "internalType": "uint256",
          "name": "id",
          "type": "uint256"
        },
        {
          "internalType": "address",
          "name": "admin",
          "type": "address"
        },
        {
          "internalType": "uint256",
          "name": "starsToEarn",
          "type": "uint256"
        },
        {
          "internalType": "bool",
          "name": "participating",
          "type": "bool"
        },
        {
          "internalType": "bool",
          "name": "completed",
          "type": "bool"
        }
      ],
      "stateMutability": "view",
      "type": "function"
    },
    {
      "inputs": [],
      "name": "getMyChallenges",
      "outputs": [
        {
          "internalType": "uint256[]",
          "name": "",
          "type": "uint256[]"
        }
      ],
      "stateMutability": "view",
      "type": "function"
    },
    {
      "inputs": [],
      "name": "getParticipatingChallenges",
      "outputs": [
        {
          "internalType": "uint256[]",
          "name": "",
          "type": "uint256[]"
        }
      ],
      "stateMutability": "view",
      "type": "function"
    },
    {
      "inputs": [
        {
          "internalType": "bytes32",
          "name": "role",
          "type": "bytes32"
        }
      ],
      "name": "getRoleAdmin",
      "outputs": [
        {
          "internalType": "bytes32",
          "name": "",
          "type": "bytes32"
        }
      ],
      "stateMutability": "view",
      "type": "function"
    },
    {
      "inputs": [
        {
          "internalType": "bytes32",
          "name": "role",
          "type": "bytes32"
        },
        {
          "internalType": "address",
          "name": "account",
          "type": "address"
        }
      ],
      "name": "grantRole",
      "outputs": [],
      "stateMutability": "nonpayable",
      "type": "function"
    },
    {
      "inputs": [
        {
          "internalType": "bytes32",
          "name": "role",
          "type": "bytes32"
        },
        {
          "internalType": "address",
          "name": "account",
          "type": "address"
        }
      ],
      "name": "hasRole",
      "outputs": [
        {
          "internalType": "bool",
          "name": "",
          "type": "bool"
        }
      ],
      "stateMutability": "view",
      "type": "function"
    },
    {
      "inputs": [
        {
          "internalType": "bytes32",
          "name": "role",
          "type": "bytes32"
        },
        {
          "internalType": "address",
          "name": "account",
          "type": "address"
        }
      ],
      "name": "renounceRole",
      "outputs": [],
      "stateMutability": "nonpayable",
      "type": "function"
    },
    {
      "inputs": [
        {
          "internalType": "bytes32",
          "name": "role",
          "type": "bytes32"
        },
        {
          "internalType": "address",
          "name": "account",
          "type": "address"
        }
      ],
      "name": "revokeRole",
      "outputs": [],
      "stateMutability": "nonpayable",
      "type": "function"
    },
    {
      "inputs": [
        {
          "internalType": "bytes4",
          "name": "interfaceId",
          "type": "bytes4"
        }
      ],
      "name": "supportsInterface",
      "outputs": [
        {
          "internalType": "bool",
          "name": "",
          "type": "bool"
        }
      ],
      "stateMutability": "view",
      "type": "function"
    }
  ],
  "bytecode": "0x60806040523480156200001157600080fd5b506040516200223038038062002230833981810160405281019062000037919062000096565b80600560006101000a81548173ffffffffffffffffffffffffffffffffffffffff021916908373ffffffffffffffffffffffffffffffffffffffff1602179055505062000110565b6000815190506200009081620000f6565b92915050565b600060208284031215620000a957600080fd5b6000620000b9848285016200007f565b91505092915050565b6000620000cf82620000d6565b9050919050565b600073ffffffffffffffffffffffffffffffffffffffff82169050919050565b6200010181620000c2565b81146200010d57600080fd5b50565b61211080620001206000396000f3fe608060405234801561001057600080fd5b50600436106100ea5760003560e01c806391d148541161008c578063b3cc79a111610066578063b3cc79a11461025f578063b62edb211461027b578063d40974d514610299578063d547741f146102b5576100ea565b806391d14854146101f55780639d8988d314610225578063a217fddf14610241576100ea565b8063248a9ca3116100c8578063248a9ca3146101715780632f2ff15d146101a157806336568abe146101bd5780634248083b146101d9576100ea565b806301ffc9a7146100ef5780631bdd4b741461011f5780631ee7953414610153575b600080fd5b610109600480360381019061010491906116db565b6102d1565b6040516101169190611a3a565b60405180910390f35b61013960048036038101906101349190611704565b61034b565b60405161014a959493929190611b12565b60405180910390f35b61015b61048d565b6040516101689190611a18565b60405180910390f35b61018b60048036038101906101869190611676565b610522565b6040516101989190611a55565b60405180910390f35b6101bb60048036038101906101b6919061169f565b610541565b005b6101d760048036038101906101d2919061169f565b610562565b005b6101f360048036038101906101ee919061163a565b6105e5565b005b61020f600480360381019061020a919061169f565b610754565b60405161021c9190611a3a565b60405180910390f35b61023f600480360381019061023a9190611704565b6107be565b005b610249610979565b6040516102569190611a55565b60405180910390f35b6102796004803603810190610274919061163a565b610980565b005b610283610ce2565b6040516102909190611a18565b60405180910390f35b6102b360048036038101906102ae919061172d565b610d77565b005b6102cf60048036038101906102ca919061169f565b610ec6565b005b60007f7965db0b000000000000000000000000000000000000000000000000000000007bffffffffffffffffffffffffffffffffffffffffffffffffffffffff1916827bffffffffffffffffffffffffffffffffffffffffffffffffffffffff19161480610344575061034382610ee7565b5b9050919050565b600080600080600060026000878152602001908152602001600020600001546002600088815260200190815260200160002060010160009054906101000a900473ffffffffffffffffffffffffffffffffffffffff166002600089815260200190815260200160002060030154600260008a815260200190815260200160002060040160003373ffffffffffffffffffffffffffffffffffffffff1673ffffffffffffffffffffffffffffffffffffffff16815260200190815260200160002060009054906101000a900460ff16600260008b815260200190815260200160002060050160003373ffffffffffffffffffffffffffffffffffffffff1673ffffffffffffffffffffffffffffffffffffffff16815260200190815260200160002060009054906101000a900460ff169450945094509450945091939590929450565b6060600360003373ffffffffffffffffffffffffffffffffffffffff1673ffffffffffffffffffffffffffffffffffffffff16815260200190815260200160002080548060200260200160405190810160405280929190818152602001828054801561051857602002820191906000526020600020905b815481526020019060010190808311610504575b5050505050905090565b6000806000838152602001908152602001600020600101549050919050565b61054a82610522565b61055381610f51565b61055d8383610f65565b505050565b61056a611045565b73ffffffffffffffffffffffffffffffffffffffff168173ffffffffffffffffffffffffffffffffffffffff16146105d7576040517f08c379a00000000000000000000000000000000000000000000000000000000081526004016105ce90611af2565b60405180910390fd5b6105e1828261104d565b5050565b60016002600083815260200190815260200160002060040160008473ffffffffffffffffffffffffffffffffffffffff1673ffffffffffffffffffffffffffffffffffffffff16815260200190815260200160002060006101000a81548160ff021916908315150217905550600360008373ffffffffffffffffffffffffffffffffffffffff1673ffffffffffffffffffffffffffffffffffffffff1681526020019081526020016000208190806001815401808255809150506001900390600052602060002001600090919091909150557f25b770ff683390ccb697853fc3c1ca917cf0c2793cd4d0a8699c87f42f9ee1bf816002600084815260200190815260200160002060040160008573ffffffffffffffffffffffffffffffffffffffff1673ffffffffffffffffffffffffffffffffffffffff16815260200190815260200160002060009054906101000a900460ff16604051610748929190611b65565b60405180910390a15050565b600080600084815260200190815260200160002060000160008373ffffffffffffffffffffffffffffffffffffffff1673ffffffffffffffffffffffffffffffffffffffff16815260200190815260200160002060009054906101000a900460ff16905092915050565b60006002600083815260200190815260200160002060040190506000600260008481526020019081526020016000206005019050600115158260003373ffffffffffffffffffffffffffffffffffffffff1673ffffffffffffffffffffffffffffffffffffffff16815260200190815260200160002060009054906101000a900460ff16151514610884576040517f08c379a000000000000000000000000000000000000000000000000000000000815260040161087b90611ab2565b60405180910390fd5b60018160003373ffffffffffffffffffffffffffffffffffffffff1673ffffffffffffffffffffffffffffffffffffffff16815260200190815260200160002060006101000a81548160ff0219169083151502179055507fa2ae97273a153f58e1d55372dc11cee95ed26013e41dbd236c5b6840570719a8836002600086815260200190815260200160002060050160003373ffffffffffffffffffffffffffffffffffffffff1673ffffffffffffffffffffffffffffffffffffffff16815260200190815260200160002060009054906101000a900460ff1660405161096c929190611b65565b60405180910390a1505050565b6000801b81565b60006002600083815260200190815260200160002060040190506000600260008481526020019081526020016000206005019050600115158260008673ffffffffffffffffffffffffffffffffffffffff1673ffffffffffffffffffffffffffffffffffffffff16815260200190815260200160002060009054906101000a900460ff16151514610a46576040517f08c379a0000000000000000000000000000000000000000000000000000000008152600401610a3d90611ab2565b60405180910390fd5b600115158160008673ffffffffffffffffffffffffffffffffffffffff1673ffffffffffffffffffffffffffffffffffffffff16815260200190815260200160002060009054906101000a900460ff16151514610ad8576040517f08c379a0000000000000000000000000000000000000000000000000000000008152600401610acf90611ad2565b60405180910390fd5b60008260008673ffffffffffffffffffffffffffffffffffffffff1673ffffffffffffffffffffffffffffffffffffffff16815260200190815260200160002060006101000a81548160ff02191690831515021790555060008160008673ffffffffffffffffffffffffffffffffffffffff1673ffffffffffffffffffffffffffffffffffffffff16815260200190815260200160002060006101000a81548160ff021916908315150217905550600560009054906101000a900473ffffffffffffffffffffffffffffffffffffffff1673ffffffffffffffffffffffffffffffffffffffff166340c10f198560026000878152602001908152602001600020600301546040518363ffffffff1660e01b8152600401610bf99291906119b8565b600060405180830381600087803b158015610c1357600080fd5b505af1158015610c27573d6000803e3d6000fd5b505050507f46e82f1b065627ee9907ba29f76b15ad8395b6a7e562cdde97efcd7788547ee4836002600086815260200190815260200160002060040160008773ffffffffffffffffffffffffffffffffffffffff1673ffffffffffffffffffffffffffffffffffffffff16815260200190815260200160002060009054906101000a900460ff166002600087815260200190815260200160002060030154604051610cd493929190611b8e565b60405180910390a150505050565b6060600160003373ffffffffffffffffffffffffffffffffffffffff1673ffffffffffffffffffffffffffffffffffffffff168152602001908152602001600020805480602002602001604051908101604052809291908181526020018280548015610d6d57602002820191906000526020600020905b815481526020019060010190808311610d59575b5050505050905090565b600060026000600454815260200190815260200160002090506004548160000181905550338160010160006101000a81548173ffffffffffffffffffffffffffffffffffffffff021916908373ffffffffffffffffffffffffffffffffffffffff16021790555081816002019080519060200190610df69291906114db565b50828160030181905550600160003373ffffffffffffffffffffffffffffffffffffffff1673ffffffffffffffffffffffffffffffffffffffff1681526020019081526020016000206004549080600181540180825580915050600190039060005260206000200160009091909190915055610e7e600160045461112e90919063ffffffff16565b6004819055507f95cfc8daa181e686d14ea373e0fa93457a03e05c990e4b069e4aa84a43632c8c3384600454604051610eb9939291906119e1565b60405180910390a1505050565b610ecf82610522565b610ed881610f51565b610ee2838361104d565b505050565b60007f01ffc9a7000000000000000000000000000000000000000000000000000000007bffffffffffffffffffffffffffffffffffffffffffffffffffffffff1916827bffffffffffffffffffffffffffffffffffffffffffffffffffffffff1916149050919050565b610f6281610f5d611045565b611144565b50565b610f6f8282610754565b61104157600160008084815260200190815260200160002060000160008373ffffffffffffffffffffffffffffffffffffffff1673ffffffffffffffffffffffffffffffffffffffff16815260200190815260200160002060006101000a81548160ff021916908315150217905550610fe6611045565b73ffffffffffffffffffffffffffffffffffffffff168173ffffffffffffffffffffffffffffffffffffffff16837f2f8788117e7eff1d82e926ec794901d17c78024a50270940304540a733656f0d60405160405180910390a45b5050565b600033905090565b6110578282610754565b1561112a57600080600084815260200190815260200160002060000160008373ffffffffffffffffffffffffffffffffffffffff1673ffffffffffffffffffffffffffffffffffffffff16815260200190815260200160002060006101000a81548160ff0219169083151502179055506110cf611045565b73ffffffffffffffffffffffffffffffffffffffff168173ffffffffffffffffffffffffffffffffffffffff16837ff6391f5c32d9c69d2a47ea670b442974b53935d1edc7fd64eb21e047a839171b60405160405180910390a45b5050565b6000818361113c9190611c7b565b905092915050565b61114e8282610754565b6111dd576111738173ffffffffffffffffffffffffffffffffffffffff1660146111e1565b6111818360001c60206111e1565b60405160200161119292919061197e565b6040516020818303038152906040526040517f08c379a00000000000000000000000000000000000000000000000000000000081526004016111d49190611a70565b60405180910390fd5b5050565b6060600060028360026111f49190611cd1565b6111fe9190611c7b565b67ffffffffffffffff81111561123d577f4e487b7100000000000000000000000000000000000000000000000000000000600052604160045260246000fd5b6040519080825280601f01601f19166020018201604052801561126f5781602001600182028036833780820191505090505b5090507f3000000000000000000000000000000000000000000000000000000000000000816000815181106112cd577f4e487b7100000000000000000000000000000000000000000000000000000000600052603260045260246000fd5b60200101907effffffffffffffffffffffffffffffffffffffffffffffffffffffffffffff1916908160001a9053507f780000000000000000000000000000000000000000000000000000000000000081600181518110611357577f4e487b7100000000000000000000000000000000000000000000000000000000600052603260045260246000fd5b60200101907effffffffffffffffffffffffffffffffffffffffffffffffffffffffffffff1916908160001a905350600060018460026113979190611cd1565b6113a19190611c7b565b90505b600181111561148d577f3031323334353637383961626364656600000000000000000000000000000000600f861660108110611409577f4e487b7100000000000000000000000000000000000000000000000000000000600052603260045260246000fd5b1a60f81b828281518110611446577f4e487b7100000000000000000000000000000000000000000000000000000000600052603260045260246000fd5b60200101907effffffffffffffffffffffffffffffffffffffffffffffffffffffffffffff1916908160001a905350600485901c94508061148690611deb565b90506113a4565b50600084146114d1576040517f08c379a00000000000000000000000000000000000000000000000000000000081526004016114c890611a92565b60405180910390fd5b8091505092915050565b8280546114e790611e15565b90600052602060002090601f0160209004810192826115095760008555611550565b82601f1061152257805160ff1916838001178555611550565b82800160010185558215611550579182015b8281111561154f578251825591602001919060010190611534565b5b50905061155d9190611561565b5090565b5b8082111561157a576000816000905550600101611562565b5090565b600061159161158c84611bea565b611bc5565b9050828152602081018484840111156115a957600080fd5b6115b4848285611da9565b509392505050565b6000813590506115cb8161207e565b92915050565b6000813590506115e081612095565b92915050565b6000813590506115f5816120ac565b92915050565b600082601f83011261160c57600080fd5b813561161c84826020860161157e565b91505092915050565b600081359050611634816120c3565b92915050565b6000806040838503121561164d57600080fd5b600061165b858286016115bc565b925050602061166c85828601611625565b9150509250929050565b60006020828403121561168857600080fd5b6000611696848285016115d1565b91505092915050565b600080604083850312156116b257600080fd5b60006116c0858286016115d1565b92505060206116d1858286016115bc565b9150509250929050565b6000602082840312156116ed57600080fd5b60006116fb848285016115e6565b91505092915050565b60006020828403121561171657600080fd5b600061172484828501611625565b91505092915050565b6000806040838503121561174057600080fd5b600061174e85828601611625565b925050602083013567ffffffffffffffff81111561176b57600080fd5b611777858286016115fb565b9150509250929050565b600061178d8383611960565b60208301905092915050565b6117a281611d2b565b82525050565b60006117b382611c2b565b6117bd8185611c4e565b93506117c883611c1b565b8060005b838110156117f95781516117e08882611781565b97506117eb83611c41565b9250506001810190506117cc565b5085935050505092915050565b61180f81611d3d565b82525050565b61181e81611d49565b82525050565b600061182f82611c36565b6118398185611c5f565b9350611849818560208601611db8565b61185281611f05565b840191505092915050565b600061186882611c36565b6118728185611c70565b9350611882818560208601611db8565b80840191505092915050565b600061189b602083611c5f565b91506118a682611f16565b602082019050919050565b60006118be602e83611c5f565b91506118c982611f3f565b604082019050919050565b60006118e1602483611c5f565b91506118ec82611f8e565b604082019050919050565b6000611904601783611c70565b915061190f82611fdd565b601782019050919050565b6000611927601183611c70565b915061193282612006565b601182019050919050565b600061194a602f83611c5f565b91506119558261202f565b604082019050919050565b61196981611d9f565b82525050565b61197881611d9f565b82525050565b6000611989826118f7565b9150611995828561185d565b91506119a08261191a565b91506119ac828461185d565b91508190509392505050565b60006040820190506119cd6000830185611799565b6119da602083018461196f565b9392505050565b60006060820190506119f66000830186611799565b611a03602083018561196f565b611a10604083018461196f565b949350505050565b60006020820190508181036000830152611a3281846117a8565b905092915050565b6000602082019050611a4f6000830184611806565b92915050565b6000602082019050611a6a6000830184611815565b92915050565b60006020820190508181036000830152611a8a8184611824565b905092915050565b60006020820190508181036000830152611aab8161188e565b9050919050565b60006020820190508181036000830152611acb816118b1565b9050919050565b60006020820190508181036000830152611aeb816118d4565b9050919050565b60006020820190508181036000830152611b0b8161193d565b9050919050565b600060a082019050611b27600083018861196f565b611b346020830187611799565b611b41604083018661196f565b611b4e6060830185611806565b611b5b6080830184611806565b9695505050505050565b6000604082019050611b7a600083018561196f565b611b876020830184611806565b9392505050565b6000606082019050611ba3600083018661196f565b611bb06020830185611806565b611bbd604083018461196f565b949350505050565b6000611bcf611be0565b9050611bdb8282611e47565b919050565b6000604051905090565b600067ffffffffffffffff821115611c0557611c04611ed6565b5b611c0e82611f05565b9050602081019050919050565b6000819050602082019050919050565b600081519050919050565b600081519050919050565b6000602082019050919050565b600082825260208201905092915050565b600082825260208201905092915050565b600081905092915050565b6000611c8682611d9f565b9150611c9183611d9f565b9250827fffffffffffffffffffffffffffffffffffffffffffffffffffffffffffffffff03821115611cc657611cc5611e78565b5b828201905092915050565b6000611cdc82611d9f565b9150611ce783611d9f565b9250817fffffffffffffffffffffffffffffffffffffffffffffffffffffffffffffffff0483118215151615611d2057611d1f611e78565b5b828202905092915050565b6000611d3682611d7f565b9050919050565b60008115159050919050565b6000819050919050565b60007fffffffff0000000000000000000000000000000000000000000000000000000082169050919050565b600073ffffffffffffffffffffffffffffffffffffffff82169050919050565b6000819050919050565b82818337600083830152505050565b60005b83811015611dd6578082015181840152602081019050611dbb565b83811115611de5576000848401525b50505050565b6000611df682611d9f565b91506000821415611e0a57611e09611e78565b5b600182039050919050565b60006002820490506001821680611e2d57607f821691505b60208210811415611e4157611e40611ea7565b5b50919050565b611e5082611f05565b810181811067ffffffffffffffff82111715611e6f57611e6e611ed6565b5b80604052505050565b7f4e487b7100000000000000000000000000000000000000000000000000000000600052601160045260246000fd5b7f4e487b7100000000000000000000000000000000000000000000000000000000600052602260045260246000fd5b7f4e487b7100000000000000000000000000000000000000000000000000000000600052604160045260246000fd5b6000601f19601f8301169050919050565b7f537472696e67733a20686578206c656e67746820696e73756666696369656e74600082015250565b7f636f756c64206e6f742066696e6420746865206465646963617465642075736560008201527f7220696e20746865206172726179000000000000000000000000000000000000602082015250565b7f7573657220686173206e6f7420636f6d706c6574656420746865206368616c6c60008201527f656e676500000000000000000000000000000000000000000000000000000000602082015250565b7f416363657373436f6e74726f6c3a206163636f756e7420000000000000000000600082015250565b7f206973206d697373696e6720726f6c6520000000000000000000000000000000600082015250565b7f416363657373436f6e74726f6c3a2063616e206f6e6c792072656e6f756e636560008201527f20726f6c657320666f722073656c660000000000000000000000000000000000602082015250565b61208781611d2b565b811461209257600080fd5b50565b61209e81611d49565b81146120a957600080fd5b50565b6120b581611d53565b81146120c057600080fd5b50565b6120cc81611d9f565b81146120d757600080fd5b5056fea26469706673582212208ba4235573097a6589b8197cf57e3db8796a07aa186b4cd3fb6650e7e420ad7064736f6c63430008040033",
  "linkReferences": {},
  "deployedLinkReferences": {}
}