{
  "_format": "hh-sol-artifact-1",
  "contractName": "StarToken",
  "sourceName": "contracts/StarToken.sol",
  "abi": [
    {
      "inputs": [],
      "stateMutability": "nonpayable",
      "type": "constructor"
    },
    {
      "anonymous": false,
      "inputs": [
        {
          "indexed": true,
          "internalType": "address",
          "name": "owner",
          "type": "address"
        },
        {
          "indexed": true,
          "internalType": "address",
          "name": "spender",
          "type": "address"
        },
        {
          "indexed": false,
          "internalType": "uint256",
          "name": "value",
          "type": "uint256"
        }
      ],
      "name": "Approval",
      "type": "event"
    },
    {
      "anonymous": false,
      "inputs": [
        {
          "indexed": false,
          "internalType": "address",
          "name": "account",
          "type": "address"
        }
      ],
      "name": "Paused",
      "type": "event"
    },
    {
      "anonymous": false,
      "inputs": [
        {
          "indexed": true,
          "internalType": "bytes32",
          "name": "role",
          "type": "bytes32"
        },
        {
          "indexed": true,
          "internalType": "bytes32",
          "name": "previousAdminRole",
          "type": "bytes32"
        },
        {
          "indexed": true,
          "internalType": "bytes32",
          "name": "newAdminRole",
          "type": "bytes32"
        }
      ],
      "name": "RoleAdminChanged",
      "type": "event"
    },
    {
      "anonymous": false,
      "inputs": [
        {
          "indexed": true,
          "internalType": "bytes32",
          "name": "role",
          "type": "bytes32"
        },
        {
          "indexed": true,
          "internalType": "address",
          "name": "account",
          "type": "address"
        },
        {
          "indexed": true,
          "internalType": "address",
          "name": "sender",
          "type": "address"
        }
      ],
      "name": "RoleGranted",
      "type": "event"
    },
    {
      "anonymous": false,
      "inputs": [
        {
          "indexed": true,
          "internalType": "bytes32",
          "name": "role",
          "type": "bytes32"
        },
        {
          "indexed": true,
          "internalType": "address",
          "name": "account",
          "type": "address"
        },
        {
          "indexed": true,
          "internalType": "address",
          "name": "sender",
          "type": "address"
        }
      ],
      "name": "RoleRevoked",
      "type": "event"
    },
    {
      "anonymous": false,
      "inputs": [
        {
          "indexed": true,
          "internalType": "address",
          "name": "from",
          "type": "address"
        },
        {
          "indexed": true,
          "internalType": "address",
          "name": "to",
          "type": "address"
        },
        {
          "indexed": false,
          "internalType": "uint256",
          "name": "value",
          "type": "uint256"
        }
      ],
      "name": "Transfer",
      "type": "event"
    },
    {
      "anonymous": false,
      "inputs": [
        {
          "indexed": false,
          "internalType": "address",
          "name": "account",
          "type": "address"
        }
      ],
      "name": "Unpaused",
      "type": "event"
    },
    {
      "inputs": [],
      "name": "DEFAULT_ADMIN_ROLE",
      "outputs": [
        {
          "internalType": "bytes32",
          "name": "",
          "type": "bytes32"
        }
      ],
      "stateMutability": "view",
      "type": "function"
    },
    {
      "inputs": [],
      "name": "PAUSER_ROLE",
      "outputs": [
        {
          "internalType": "bytes32",
          "name": "",
          "type": "bytes32"
        }
      ],
      "stateMutability": "view",
      "type": "function"
    },
    {
      "inputs": [
        {
          "internalType": "address",
          "name": "owner",
          "type": "address"
        },
        {
          "internalType": "address",
          "name": "spender",
          "type": "address"
        }
      ],
      "name": "allowance",
      "outputs": [
        {
          "internalType": "uint256",
          "name": "",
          "type": "uint256"
        }
      ],
      "stateMutability": "view",
      "type": "function"
    },
    {
      "inputs": [
        {
          "internalType": "address",
          "name": "spender",
          "type": "address"
        },
        {
          "internalType": "uint256",
          "name": "amount",
          "type": "uint256"
        }
      ],
      "name": "approve",
      "outputs": [
        {
          "internalType": "bool",
          "name": "",
          "type": "bool"
        }
      ],
      "stateMutability": "nonpayable",
      "type": "function"
    },
    {
      "inputs": [
        {
          "internalType": "address",
          "name": "account",
          "type": "address"
        }
      ],
      "name": "balanceOf",
      "outputs": [
        {
          "internalType": "uint256",
          "name": "",
          "type": "uint256"
        }
      ],
      "stateMutability": "view",
      "type": "function"
    },
    {
      "inputs": [
        {
          "internalType": "uint256",
          "name": "amount",
          "type": "uint256"
        }
      ],
      "name": "burn",
      "outputs": [],
      "stateMutability": "nonpayable",
      "type": "function"
    },
    {
      "inputs": [
        {
          "internalType": "address",
          "name": "account",
          "type": "address"
        },
        {
          "internalType": "uint256",
          "name": "amount",
          "type": "uint256"
        }
      ],
      "name": "burnFrom",
      "outputs": [],
      "stateMutability": "nonpayable",
      "type": "function"
    },
    {
      "inputs": [],
      "name": "decimals",
      "outputs": [
        {
          "internalType": "uint8",
          "name": "",
          "type": "uint8"
        }
      ],
      "stateMutability": "view",
      "type": "function"
    },
    {
      "inputs": [
        {
          "internalType": "address",
          "name": "spender",
          "type": "address"
        },
        {
          "internalType": "uint256",
          "name": "subtractedValue",
          "type": "uint256"
        }
      ],
      "name": "decreaseAllowance",
      "outputs": [
        {
          "internalType": "bool",
          "name": "",
          "type": "bool"
        }
      ],
      "stateMutability": "nonpayable",
      "type": "function"
    },
    {
      "inputs": [
        {
          "internalType": "bytes32",
          "name": "role",
          "type": "bytes32"
        }
      ],
      "name": "getRoleAdmin",
      "outputs": [
        {
          "internalType": "bytes32",
          "name": "",
          "type": "bytes32"
        }
      ],
      "stateMutability": "view",
      "type": "function"
    },
    {
      "inputs": [
        {
          "internalType": "bytes32",
          "name": "role",
          "type": "bytes32"
        },
        {
          "internalType": "address",
          "name": "account",
          "type": "address"
        }
      ],
      "name": "grantRole",
      "outputs": [],
      "stateMutability": "nonpayable",
      "type": "function"
    },
    {
      "inputs": [
        {
          "internalType": "bytes32",
          "name": "role",
          "type": "bytes32"
        },
        {
          "internalType": "address",
          "name": "account",
          "type": "address"
        }
      ],
      "name": "hasRole",
      "outputs": [
        {
          "internalType": "bool",
          "name": "",
          "type": "bool"
        }
      ],
      "stateMutability": "view",
      "type": "function"
    },
    {
      "inputs": [
        {
          "internalType": "address",
          "name": "spender",
          "type": "address"
        },
        {
          "internalType": "uint256",
          "name": "addedValue",
          "type": "uint256"
        }
      ],
      "name": "increaseAllowance",
      "outputs": [
        {
          "internalType": "bool",
          "name": "",
          "type": "bool"
        }
      ],
      "stateMutability": "nonpayable",
      "type": "function"
    },
    {
      "inputs": [
        {
          "internalType": "address",
          "name": "to",
          "type": "address"
        },
        {
          "internalType": "uint256",
          "name": "amount",
          "type": "uint256"
        }
      ],
      "name": "mint",
      "outputs": [],
      "stateMutability": "payable",
      "type": "function"
    },
    {
      "inputs": [],
      "name": "name",
      "outputs": [
        {
          "internalType": "string",
          "name": "",
          "type": "string"
        }
      ],
      "stateMutability": "view",
      "type": "function"
    },
    {
      "inputs": [],
      "name": "pause",
      "outputs": [],
      "stateMutability": "nonpayable",
      "type": "function"
    },
    {
      "inputs": [],
      "name": "paused",
      "outputs": [
        {
          "internalType": "bool",
          "name": "",
          "type": "bool"
        }
      ],
      "stateMutability": "view",
      "type": "function"
    },
    {
      "inputs": [
        {
          "internalType": "bytes32",
          "name": "role",
          "type": "bytes32"
        },
        {
          "internalType": "address",
          "name": "account",
          "type": "address"
        }
      ],
      "name": "renounceRole",
      "outputs": [],
      "stateMutability": "nonpayable",
      "type": "function"
    },
    {
      "inputs": [
        {
          "internalType": "bytes32",
          "name": "role",
          "type": "bytes32"
        },
        {
          "internalType": "address",
          "name": "account",
          "type": "address"
        }
      ],
      "name": "revokeRole",
      "outputs": [],
      "stateMutability": "nonpayable",
      "type": "function"
    },
    {
      "inputs": [
        {
          "internalType": "bytes4",
          "name": "interfaceId",
          "type": "bytes4"
        }
      ],
      "name": "supportsInterface",
      "outputs": [
        {
          "internalType": "bool",
          "name": "",
          "type": "bool"
        }
      ],
      "stateMutability": "view",
      "type": "function"
    },
    {
      "inputs": [],
      "name": "symbol",
      "outputs": [
        {
          "internalType": "string",
          "name": "",
          "type": "string"
        }
      ],
      "stateMutability": "view",
      "type": "function"
    },
    {
      "inputs": [],
      "name": "totalSupply",
      "outputs": [
        {
          "internalType": "uint256",
          "name": "",
          "type": "uint256"
        }
      ],
      "stateMutability": "view",
      "type": "function"
    },
    {
      "inputs": [
        {
          "internalType": "address",
          "name": "to",
          "type": "address"
        },
        {
          "internalType": "uint256",
          "name": "amount",
          "type": "uint256"
        }
      ],
      "name": "transfer",
      "outputs": [
        {
          "internalType": "bool",
          "name": "",
          "type": "bool"
        }
      ],
      "stateMutability": "nonpayable",
      "type": "function"
    },
    {
      "inputs": [
        {
          "internalType": "address",
          "name": "from",
          "type": "address"
        },
        {
          "internalType": "address",
          "name": "to",
          "type": "address"
        },
        {
          "internalType": "uint256",
          "name": "amount",
          "type": "uint256"
        }
      ],
      "name": "transferFrom",
      "outputs": [
        {
          "internalType": "bool",
          "name": "",
          "type": "bool"
        }
      ],
      "stateMutability": "nonpayable",
      "type": "function"
    },
    {
      "inputs": [],
      "name": "unpause",
      "outputs": [],
      "stateMutability": "nonpayable",
      "type": "function"
    }
  ],
  "bytecode": "0x60806040523480156200001157600080fd5b506040518060400160405280600981526020017f53746172546f6b656e00000000000000000000000000000000000000000000008152506040518060400160405280600481526020017f53544152000000000000000000000000000000000000000000000000000000008152508160039080519060200190620000969291906200027f565b508060049080519060200190620000af9291906200027f565b5050506000600560006101000a81548160ff021916908315150217905550620000e26000801b336200011a60201b60201c565b620001147f65d7a28e3265b37a6474929f336521b332c1681b933f6cb9f3376673440d862a336200011a60201b60201c565b62000394565b6200012c82826200020c60201b60201c565b620002085760016006600084815260200190815260200160002060000160008373ffffffffffffffffffffffffffffffffffffffff1673ffffffffffffffffffffffffffffffffffffffff16815260200190815260200160002060006101000a81548160ff021916908315150217905550620001ad6200027760201b60201c565b73ffffffffffffffffffffffffffffffffffffffff168173ffffffffffffffffffffffffffffffffffffffff16837f2f8788117e7eff1d82e926ec794901d17c78024a50270940304540a733656f0d60405160405180910390a45b5050565b60006006600084815260200190815260200160002060000160008373ffffffffffffffffffffffffffffffffffffffff1673ffffffffffffffffffffffffffffffffffffffff16815260200190815260200160002060009054906101000a900460ff16905092915050565b600033905090565b8280546200028d906200032f565b90600052602060002090601f016020900481019282620002b15760008555620002fd565b82601f10620002cc57805160ff1916838001178555620002fd565b82800160010185558215620002fd579182015b82811115620002fc578251825591602001919060010190620002df565b5b5090506200030c919062000310565b5090565b5b808211156200032b57600081600090555060010162000311565b5090565b600060028204905060018216806200034857607f821691505b602082108114156200035f576200035e62000365565b5b50919050565b7f4e487b7100000000000000000000000000000000000000000000000000000000600052602260045260246000fd5b612a1780620003a46000396000f3fe6080604052600436106101665760003560e01c806342966c68116100d157806395d89b411161008a578063a9059cbb11610064578063a9059cbb14610543578063d547741f14610580578063dd62ed3e146105a9578063e63ab1e9146105e657610166565b806395d89b41146104b0578063a217fddf146104db578063a457c2d71461050657610166565b806342966c68146103a25780635c975abb146103cb57806370a08231146103f657806379cc6790146104335780638456cb591461045c57806391d148541461047357610166565b80632f2ff15d116101235780632f2ff15d146102b5578063313ce567146102de57806336568abe1461030957806339509351146103325780633f4ba83a1461036f57806340c10f191461038657610166565b806301ffc9a71461016b57806306fdde03146101a8578063095ea7b3146101d357806318160ddd1461021057806323b872dd1461023b578063248a9ca314610278575b600080fd5b34801561017757600080fd5b50610192600480360381019061018d9190611d31565b610611565b60405161019f91906120bd565b60405180910390f35b3480156101b457600080fd5b506101bd61068b565b6040516101ca91906120f3565b60405180910390f35b3480156101df57600080fd5b506101fa60048036038101906101f59190611c90565b61071d565b60405161020791906120bd565b60405180910390f35b34801561021c57600080fd5b50610225610740565b60405161023291906122d5565b60405180910390f35b34801561024757600080fd5b50610262600480360381019061025d9190611c41565b61074a565b60405161026f91906120bd565b60405180910390f35b34801561028457600080fd5b5061029f600480360381019061029a9190611ccc565b610779565b6040516102ac91906120d8565b60405180910390f35b3480156102c157600080fd5b506102dc60048036038101906102d79190611cf5565b610799565b005b3480156102ea57600080fd5b506102f36107ba565b60405161030091906122f0565b60405180910390f35b34801561031557600080fd5b50610330600480360381019061032b9190611cf5565b6107c3565b005b34801561033e57600080fd5b5061035960048036038101906103549190611c90565b610846565b60405161036691906120bd565b60405180910390f35b34801561037b57600080fd5b5061038461087d565b005b6103a0600480360381019061039b9190611c90565b6108b2565b005b3480156103ae57600080fd5b506103c960048036038101906103c49190611d5a565b6108c0565b005b3480156103d757600080fd5b506103e06108d4565b6040516103ed91906120bd565b60405180910390f35b34801561040257600080fd5b5061041d60048036038101906104189190611bdc565b6108eb565b60405161042a91906122d5565b60405180910390f35b34801561043f57600080fd5b5061045a60048036038101906104559190611c90565b610933565b005b34801561046857600080fd5b50610471610953565b005b34801561047f57600080fd5b5061049a60048036038101906104959190611cf5565b610988565b6040516104a791906120bd565b60405180910390f35b3480156104bc57600080fd5b506104c56109f3565b6040516104d291906120f3565b60405180910390f35b3480156104e757600080fd5b506104f0610a85565b6040516104fd91906120d8565b60405180910390f35b34801561051257600080fd5b5061052d60048036038101906105289190611c90565b610a8c565b60405161053a91906120bd565b60405180910390f35b34801561054f57600080fd5b5061056a60048036038101906105659190611c90565b610b03565b60405161057791906120bd565b60405180910390f35b34801561058c57600080fd5b506105a760048036038101906105a29190611cf5565b610b26565b005b3480156105b557600080fd5b506105d060048036038101906105cb9190611c05565b610b47565b6040516105dd91906122d5565b60405180910390f35b3480156105f257600080fd5b506105fb610bce565b60405161060891906120d8565b60405180910390f35b60007f7965db0b000000000000000000000000000000000000000000000000000000007bffffffffffffffffffffffffffffffffffffffffffffffffffffffff1916827bffffffffffffffffffffffffffffffffffffffffffffffffffffffff19161480610684575061068382610bf2565b5b9050919050565b60606003805461069a906124fe565b80601f01602080910402602001604051908101604052809291908181526020018280546106c6906124fe565b80156107135780601f106106e857610100808354040283529160200191610713565b820191906000526020600020905b8154815290600101906020018083116106f657829003601f168201915b5050505050905090565b600080610728610c5c565b9050610735818585610c64565b600191505092915050565b6000600254905090565b600080610755610c5c565b9050610762858285610e2f565b61076d858585610ebb565b60019150509392505050565b600060066000838152602001908152602001600020600101549050919050565b6107a282610779565b6107ab8161113c565b6107b58383611150565b505050565b60006012905090565b6107cb610c5c565b73ffffffffffffffffffffffffffffffffffffffff168173ffffffffffffffffffffffffffffffffffffffff1614610838576040517f08c379a000000000000000000000000000000000000000000000000000000000815260040161082f90612295565b60405180910390fd5b6108428282611231565b5050565b600080610851610c5c565b90506108728185856108638589610b47565b61086d9190612332565b610c64565b600191505092915050565b7f65d7a28e3265b37a6474929f336521b332c1681b933f6cb9f3376673440d862a6108a78161113c565b6108af611313565b50565b6108bc82826113b5565b5050565b6108d16108cb610c5c565b82611515565b50565b6000600560009054906101000a900460ff16905090565b60008060008373ffffffffffffffffffffffffffffffffffffffff1673ffffffffffffffffffffffffffffffffffffffff168152602001908152602001600020549050919050565b6109458261093f610c5c565b83610e2f565b61094f8282611515565b5050565b7f65d7a28e3265b37a6474929f336521b332c1681b933f6cb9f3376673440d862a61097d8161113c565b6109856116ec565b50565b60006006600084815260200190815260200160002060000160008373ffffffffffffffffffffffffffffffffffffffff1673ffffffffffffffffffffffffffffffffffffffff16815260200190815260200160002060009054906101000a900460ff16905092915050565b606060048054610a02906124fe565b80601f0160208091040260200160405190810160405280929190818152602001828054610a2e906124fe565b8015610a7b5780601f10610a5057610100808354040283529160200191610a7b565b820191906000526020600020905b815481529060010190602001808311610a5e57829003601f168201915b5050505050905090565b6000801b81565b600080610a97610c5c565b90506000610aa58286610b47565b905083811015610aea576040517f08c379a0000000000000000000000000000000000000000000000000000000008152600401610ae190612275565b60405180910390fd5b610af78286868403610c64565b60019250505092915050565b600080610b0e610c5c565b9050610b1b818585610ebb565b600191505092915050565b610b2f82610779565b610b388161113c565b610b428383611231565b505050565b6000600160008473ffffffffffffffffffffffffffffffffffffffff1673ffffffffffffffffffffffffffffffffffffffff16815260200190815260200160002060008373ffffffffffffffffffffffffffffffffffffffff1673ffffffffffffffffffffffffffffffffffffffff16815260200190815260200160002054905092915050565b7f65d7a28e3265b37a6474929f336521b332c1681b933f6cb9f3376673440d862a81565b60007f01ffc9a7000000000000000000000000000000000000000000000000000000007bffffffffffffffffffffffffffffffffffffffffffffffffffffffff1916827bffffffffffffffffffffffffffffffffffffffffffffffffffffffff1916149050919050565b600033905090565b600073ffffffffffffffffffffffffffffffffffffffff168373ffffffffffffffffffffffffffffffffffffffff161415610cd4576040517f08c379a0000000000000000000000000000000000000000000000000000000008152600401610ccb90612255565b60405180910390fd5b600073ffffffffffffffffffffffffffffffffffffffff168273ffffffffffffffffffffffffffffffffffffffff161415610d44576040517f08c379a0000000000000000000000000000000000000000000000000000000008152600401610d3b90612195565b60405180910390fd5b80600160008573ffffffffffffffffffffffffffffffffffffffff1673ffffffffffffffffffffffffffffffffffffffff16815260200190815260200160002060008473ffffffffffffffffffffffffffffffffffffffff1673ffffffffffffffffffffffffffffffffffffffff168152602001908152602001600020819055508173ffffffffffffffffffffffffffffffffffffffff168373ffffffffffffffffffffffffffffffffffffffff167f8c5be1e5ebec7d5bd14f71427d1e84f3dd0314c0f7b2291e5b200ac8c7c3b92583604051610e2291906122d5565b60405180910390a3505050565b6000610e3b8484610b47565b90507fffffffffffffffffffffffffffffffffffffffffffffffffffffffffffffffff8114610eb55781811015610ea7576040517f08c379a0000000000000000000000000000000000000000000000000000000008152600401610e9e906121b5565b60405180910390fd5b610eb48484848403610c64565b5b50505050565b600073ffffffffffffffffffffffffffffffffffffffff168373ffffffffffffffffffffffffffffffffffffffff161415610f2b576040517f08c379a0000000000000000000000000000000000000000000000000000000008152600401610f2290612235565b60405180910390fd5b600073ffffffffffffffffffffffffffffffffffffffff168273ffffffffffffffffffffffffffffffffffffffff161415610f9b576040517f08c379a0000000000000000000000000000000000000000000000000000000008152600401610f9290612135565b60405180910390fd5b610fa683838361178f565b60008060008573ffffffffffffffffffffffffffffffffffffffff1673ffffffffffffffffffffffffffffffffffffffff1681526020019081526020016000205490508181101561102c576040517f08c379a0000000000000000000000000000000000000000000000000000000008152600401611023906121d5565b60405180910390fd5b8181036000808673ffffffffffffffffffffffffffffffffffffffff1673ffffffffffffffffffffffffffffffffffffffff16815260200190815260200160002081905550816000808573ffffffffffffffffffffffffffffffffffffffff1673ffffffffffffffffffffffffffffffffffffffff16815260200190815260200160002060008282546110bf9190612332565b925050819055508273ffffffffffffffffffffffffffffffffffffffff168473ffffffffffffffffffffffffffffffffffffffff167fddf252ad1be2c89b69c2b068fc378daa952ba7f163c4a11628f55a4df523b3ef8460405161112391906122d5565b60405180910390a36111368484846117e7565b50505050565b61114d81611148610c5c565b6117ec565b50565b61115a8282610988565b61122d5760016006600084815260200190815260200160002060000160008373ffffffffffffffffffffffffffffffffffffffff1673ffffffffffffffffffffffffffffffffffffffff16815260200190815260200160002060006101000a81548160ff0219169083151502179055506111d2610c5c565b73ffffffffffffffffffffffffffffffffffffffff168173ffffffffffffffffffffffffffffffffffffffff16837f2f8788117e7eff1d82e926ec794901d17c78024a50270940304540a733656f0d60405160405180910390a45b5050565b61123b8282610988565b1561130f5760006006600084815260200190815260200160002060000160008373ffffffffffffffffffffffffffffffffffffffff1673ffffffffffffffffffffffffffffffffffffffff16815260200190815260200160002060006101000a81548160ff0219169083151502179055506112b4610c5c565b73ffffffffffffffffffffffffffffffffffffffff168173ffffffffffffffffffffffffffffffffffffffff16837ff6391f5c32d9c69d2a47ea670b442974b53935d1edc7fd64eb21e047a839171b60405160405180910390a45b5050565b61131b6108d4565b61135a576040517f08c379a000000000000000000000000000000000000000000000000000000000815260040161135190612155565b60405180910390fd5b6000600560006101000a81548160ff0219169083151502179055507f5db9ee0a495bf2e6ff9c91a7834c1ba4fdd244a5e8aa4e537bd38aeae4b073aa61139e610c5c565b6040516113ab91906120a2565b60405180910390a1565b600073ffffffffffffffffffffffffffffffffffffffff168273ffffffffffffffffffffffffffffffffffffffff161415611425576040517f08c379a000000000000000000000000000000000000000000000000000000000815260040161141c906122b5565b60405180910390fd5b6114316000838361178f565b80600260008282546114439190612332565b92505081905550806000808473ffffffffffffffffffffffffffffffffffffffff1673ffffffffffffffffffffffffffffffffffffffff16815260200190815260200160002060008282546114989190612332565b925050819055508173ffffffffffffffffffffffffffffffffffffffff16600073ffffffffffffffffffffffffffffffffffffffff167fddf252ad1be2c89b69c2b068fc378daa952ba7f163c4a11628f55a4df523b3ef836040516114fd91906122d5565b60405180910390a3611511600083836117e7565b5050565b600073ffffffffffffffffffffffffffffffffffffffff168273ffffffffffffffffffffffffffffffffffffffff161415611585576040517f08c379a000000000000000000000000000000000000000000000000000000000815260040161157c90612215565b60405180910390fd5b6115918260008361178f565b60008060008473ffffffffffffffffffffffffffffffffffffffff1673ffffffffffffffffffffffffffffffffffffffff16815260200190815260200160002054905081811015611617576040517f08c379a000000000000000000000000000000000000000000000000000000000815260040161160e90612175565b60405180910390fd5b8181036000808573ffffffffffffffffffffffffffffffffffffffff1673ffffffffffffffffffffffffffffffffffffffff16815260200190815260200160002081905550816002600082825461166e91906123e2565b92505081905550600073ffffffffffffffffffffffffffffffffffffffff168373ffffffffffffffffffffffffffffffffffffffff167fddf252ad1be2c89b69c2b068fc378daa952ba7f163c4a11628f55a4df523b3ef846040516116d391906122d5565b60405180910390a36116e7836000846117e7565b505050565b6116f46108d4565b15611734576040517f08c379a000000000000000000000000000000000000000000000000000000000815260040161172b906121f5565b60405180910390fd5b6001600560006101000a81548160ff0219169083151502179055507f62e78cea01bee320cd4e420270b5ea74000d11b0c9f74754ebdbfc544b05a258611778610c5c565b60405161178591906120a2565b60405180910390a1565b6117976108d4565b156117d7576040517f08c379a00000000000000000000000000000000000000000000000000000000081526004016117ce906121f5565b60405180910390fd5b6117e2838383611889565b505050565b505050565b6117f68282610988565b6118855761181b8173ffffffffffffffffffffffffffffffffffffffff16601461188e565b6118298360001c602061188e565b60405160200161183a929190612068565b6040516020818303038152906040526040517f08c379a000000000000000000000000000000000000000000000000000000000815260040161187c91906120f3565b60405180910390fd5b5050565b505050565b6060600060028360026118a19190612388565b6118ab9190612332565b67ffffffffffffffff8111156118ea577f4e487b7100000000000000000000000000000000000000000000000000000000600052604160045260246000fd5b6040519080825280601f01601f19166020018201604052801561191c5781602001600182028036833780820191505090505b5090507f30000000000000000000000000000000000000000000000000000000000000008160008151811061197a577f4e487b7100000000000000000000000000000000000000000000000000000000600052603260045260246000fd5b60200101907effffffffffffffffffffffffffffffffffffffffffffffffffffffffffffff1916908160001a9053507f780000000000000000000000000000000000000000000000000000000000000081600181518110611a04577f4e487b7100000000000000000000000000000000000000000000000000000000600052603260045260246000fd5b60200101907effffffffffffffffffffffffffffffffffffffffffffffffffffffffffffff1916908160001a90535060006001846002611a449190612388565b611a4e9190612332565b90505b6001811115611b3a577f3031323334353637383961626364656600000000000000000000000000000000600f861660108110611ab6577f4e487b7100000000000000000000000000000000000000000000000000000000600052603260045260246000fd5b1a60f81b828281518110611af3577f4e487b7100000000000000000000000000000000000000000000000000000000600052603260045260246000fd5b60200101907effffffffffffffffffffffffffffffffffffffffffffffffffffffffffffff1916908160001a905350600485901c945080611b33906124d4565b9050611a51565b5060008414611b7e576040517f08c379a0000000000000000000000000000000000000000000000000000000008152600401611b7590612115565b60405180910390fd5b8091505092915050565b600081359050611b9781612985565b92915050565b600081359050611bac8161299c565b92915050565b600081359050611bc1816129b3565b92915050565b600081359050611bd6816129ca565b92915050565b600060208284031215611bee57600080fd5b6000611bfc84828501611b88565b91505092915050565b60008060408385031215611c1857600080fd5b6000611c2685828601611b88565b9250506020611c3785828601611b88565b9150509250929050565b600080600060608486031215611c5657600080fd5b6000611c6486828701611b88565b9350506020611c7586828701611b88565b9250506040611c8686828701611bc7565b9150509250925092565b60008060408385031215611ca357600080fd5b6000611cb185828601611b88565b9250506020611cc285828601611bc7565b9150509250929050565b600060208284031215611cde57600080fd5b6000611cec84828501611b9d565b91505092915050565b60008060408385031215611d0857600080fd5b6000611d1685828601611b9d565b9250506020611d2785828601611b88565b9150509250929050565b600060208284031215611d4357600080fd5b6000611d5184828501611bb2565b91505092915050565b600060208284031215611d6c57600080fd5b6000611d7a84828501611bc7565b91505092915050565b611d8c81612416565b82525050565b611d9b81612428565b82525050565b611daa81612434565b82525050565b6000611dbb8261230b565b611dc58185612316565b9350611dd58185602086016124a1565b611dde8161258e565b840191505092915050565b6000611df48261230b565b611dfe8185612327565b9350611e0e8185602086016124a1565b80840191505092915050565b6000611e27602083612316565b9150611e328261259f565b602082019050919050565b6000611e4a602383612316565b9150611e55826125c8565b604082019050919050565b6000611e6d601483612316565b9150611e7882612617565b602082019050919050565b6000611e90602283612316565b9150611e9b82612640565b604082019050919050565b6000611eb3602283612316565b9150611ebe8261268f565b604082019050919050565b6000611ed6601d83612316565b9150611ee1826126de565b602082019050919050565b6000611ef9602683612316565b9150611f0482612707565b604082019050919050565b6000611f1c601083612316565b9150611f2782612756565b602082019050919050565b6000611f3f602183612316565b9150611f4a8261277f565b604082019050919050565b6000611f62602583612316565b9150611f6d826127ce565b604082019050919050565b6000611f85602483612316565b9150611f908261281d565b604082019050919050565b6000611fa8601783612327565b9150611fb38261286c565b601782019050919050565b6000611fcb602583612316565b9150611fd682612895565b604082019050919050565b6000611fee601183612327565b9150611ff9826128e4565b601182019050919050565b6000612011602f83612316565b915061201c8261290d565b604082019050919050565b6000612034601f83612316565b915061203f8261295c565b602082019050919050565b6120538161248a565b82525050565b61206281612494565b82525050565b600061207382611f9b565b915061207f8285611de9565b915061208a82611fe1565b91506120968284611de9565b91508190509392505050565b60006020820190506120b76000830184611d83565b92915050565b60006020820190506120d26000830184611d92565b92915050565b60006020820190506120ed6000830184611da1565b92915050565b6000602082019050818103600083015261210d8184611db0565b905092915050565b6000602082019050818103600083015261212e81611e1a565b9050919050565b6000602082019050818103600083015261214e81611e3d565b9050919050565b6000602082019050818103600083015261216e81611e60565b9050919050565b6000602082019050818103600083015261218e81611e83565b9050919050565b600060208201905081810360008301526121ae81611ea6565b9050919050565b600060208201905081810360008301526121ce81611ec9565b9050919050565b600060208201905081810360008301526121ee81611eec565b9050919050565b6000602082019050818103600083015261220e81611f0f565b9050919050565b6000602082019050818103600083015261222e81611f32565b9050919050565b6000602082019050818103600083015261224e81611f55565b9050919050565b6000602082019050818103600083015261226e81611f78565b9050919050565b6000602082019050818103600083015261228e81611fbe565b9050919050565b600060208201905081810360008301526122ae81612004565b9050919050565b600060208201905081810360008301526122ce81612027565b9050919050565b60006020820190506122ea600083018461204a565b92915050565b60006020820190506123056000830184612059565b92915050565b600081519050919050565b600082825260208201905092915050565b600081905092915050565b600061233d8261248a565b91506123488361248a565b9250827fffffffffffffffffffffffffffffffffffffffffffffffffffffffffffffffff0382111561237d5761237c612530565b5b828201905092915050565b60006123938261248a565b915061239e8361248a565b9250817fffffffffffffffffffffffffffffffffffffffffffffffffffffffffffffffff04831182151516156123d7576123d6612530565b5b828202905092915050565b60006123ed8261248a565b91506123f88361248a565b92508282101561240b5761240a612530565b5b828203905092915050565b60006124218261246a565b9050919050565b60008115159050919050565b6000819050919050565b60007fffffffff0000000000000000000000000000000000000000000000000000000082169050919050565b600073ffffffffffffffffffffffffffffffffffffffff82169050919050565b6000819050919050565b600060ff82169050919050565b60005b838110156124bf5780820151818401526020810190506124a4565b838111156124ce576000848401525b50505050565b60006124df8261248a565b915060008214156124f3576124f2612530565b5b600182039050919050565b6000600282049050600182168061251657607f821691505b6020821081141561252a5761252961255f565b5b50919050565b7f4e487b7100000000000000000000000000000000000000000000000000000000600052601160045260246000fd5b7f4e487b7100000000000000000000000000000000000000000000000000000000600052602260045260246000fd5b6000601f19601f8301169050919050565b7f537472696e67733a20686578206c656e67746820696e73756666696369656e74600082015250565b7f45524332303a207472616e7366657220746f20746865207a65726f206164647260008201527f6573730000000000000000000000000000000000000000000000000000000000602082015250565b7f5061757361626c653a206e6f7420706175736564000000000000000000000000600082015250565b7f45524332303a206275726e20616d6f756e7420657863656564732062616c616e60008201527f6365000000000000000000000000000000000000000000000000000000000000602082015250565b7f45524332303a20617070726f766520746f20746865207a65726f20616464726560008201527f7373000000000000000000000000000000000000000000000000000000000000602082015250565b7f45524332303a20696e73756666696369656e7420616c6c6f77616e6365000000600082015250565b7f45524332303a207472616e7366657220616d6f756e742065786365656473206260008201527f616c616e63650000000000000000000000000000000000000000000000000000602082015250565b7f5061757361626c653a2070617573656400000000000000000000000000000000600082015250565b7f45524332303a206275726e2066726f6d20746865207a65726f2061646472657360008201527f7300000000000000000000000000000000000000000000000000000000000000602082015250565b7f45524332303a207472616e736665722066726f6d20746865207a65726f20616460008201527f6472657373000000000000000000000000000000000000000000000000000000602082015250565b7f45524332303a20617070726f76652066726f6d20746865207a65726f2061646460008201527f7265737300000000000000000000000000000000000000000000000000000000602082015250565b7f416363657373436f6e74726f6c3a206163636f756e7420000000000000000000600082015250565b7f45524332303a2064656372656173656420616c6c6f77616e63652062656c6f7760008201527f207a65726f000000000000000000000000000000000000000000000000000000602082015250565b7f206973206d697373696e6720726f6c6520000000000000000000000000000000600082015250565b7f416363657373436f6e74726f6c3a2063616e206f6e6c792072656e6f756e636560008201527f20726f6c657320666f722073656c660000000000000000000000000000000000602082015250565b7f45524332303a206d696e7420746f20746865207a65726f206164647265737300600082015250565b61298e81612416565b811461299957600080fd5b50565b6129a581612434565b81146129b057600080fd5b50565b6129bc8161243e565b81146129c757600080fd5b50565b6129d38161248a565b81146129de57600080fd5b5056fea26469706673582212202fad5500f4ae2fafc721ea15712ad85ab272525a519253e0fb2b3c9261751d4264736f6c63430008040033",
  "linkReferences": {},
  "deployedLinkReferences": {}
}